S01A000062745F736F635F6D6573685F70726F6A6563742E733337FE
S31508000000C00A002059190008ADC80108ADC8010882
S31508000010A5E60108ADC80108ADC80108ADC80108C4
S31508000020ADC80108ADC80108ADC80108ADC80108CA
S31508000030ADC80108ADC8010887E70108ADC80108C1
S31508000040ADC80108ADC80108ADC80108ADC80108AA
S31508000050ADC80108ADC80108ADC80108ADC801089A
S31508000060ADC80108ADC80108ADC801089117000858
S315080000700DC80108ADC80108ADC80108ADC801081A
S31508000080ADC80108ADC80108ADC80108ADC801086A
S31508000090ADC80108E5210008ADC80108ADC80108CA
S315080000A0ADC80108251E0008051E0008ADC80108D0
S315080000B0ADC80108ED76010899810108B564020802
S315080000C0B164020829790108CB640208B9640208F8
S315080000D069810108BD640208D981010841820108C5
S315080000E0ADC80108ADC80108ADC80108ADC801080A
S315080000F0A7DB0108ADC80108ADC80108ADC80108ED
S31508000100ADC80108ADC80108ADC80108ADC80108E9
S31508000110ADC80108ADC80108ADC80108ADC80108D9
S31508000120ADC80108ADC80108ADC80108ADC80108C9
S31508000130ADC80108ADC80108ADC80108ADC80108B9
S31508000140ADC80108ADC80108ADC801087796020810
S315080001505D5C0108ADC801089F640208A564020831
S31508000160ADC80108ADC80108ADC80108ADC8010889
S315080001702DE9F04F93B0CDE90A32DDE91C530E9311
S3150800018053EC102BCDE90801104619468DED060BE8
S315080001901E9E18F0EFFC80B1DDE906014FF0FF3234
S315080001A0C54B18F00FFD40B9DDE906014FF0FF32E7
S315080001B06FF4801318F0E8FC70B1DDE908019DEDD5
S315080001C0060B0E9B1E96CDE91C53DDE90A3213B0C9
S315080001D0BDE8F04F00F088B90022DDE906010023EA
S315080001E018F0D2FC002800F03381DDE906A303F1FC
S315080001F0004BCBF30A5016F48063A0F2FF3008BF19
S3150800020006250F9318F0E4F99BA3D3E9002318F009
S3150800021049FA9BA3D3E9002318F08EF8CBF313040D
S31508000220894644F07F5180460022A44B504641F44B
S31508000230401118F07FF894A3D3E9002318F032FA96
S3150800024002460B464046494618F076F818F0C4FCB4
S31508000250044618F0BDF98EA3D3E9002380468946E3
S3150800026018F020FA0022964B18F066F818F0B4FC3D
S3150800027089A3D3E9002307464946404618F012FAEF
S3150800028080463846894618F0A3F985A3D3E90023A2
S3150800029018F008FA02460B464046494618F04AF84E
S315080002A002460B46CDE90C2318F0FCF9DDE90C23D0
S315080002B0804689461046194618F03EF80022CDE9D0
S315080002C01001804B4046494618F016FB00227E4B2B
S315080002D018F032F802460B464046494618F00CFB21
S315080002E000227A4B18F028F802460B464046494643
S315080002F018F002FBDDE90C238046894600204FF002
S31508000300804118F017F802460B464046494618F051
S3150800031013F802460B46DDE9100118F0EDFA07F26C
S31508000320FF3700226A4B18F007F800223B0518F041
S31508000330B9F952465B468046894618F043FC0028C0
S3150800034040F08980CDE90C8904F16303C72B34BFDB
S315080003500427052731051BD553A3D3E900235046A7
S31508000360594618F025FC00287FD051A3D3E900236D
S315080003705046594618F008FC002876D00027A542B2
S31508000380C6BF2C1B04F1FF3500253C4646F48066A3
S315080003900E9B9F422CBF4FF00008A3EB070816F0F0
S315080003A0020903D0002F18BF4FF000083CB1DDE961
S315080003B00C235046594618F09FFA82468B46DDE9CB
S315080003C006010022002318F0DFFB10B10BF10043F1
S315080003D09B46DDE9080126F40063CDE90183DDE9E2
S315080003E00A324BEC10AB009500F07EF802465FB37C
S315080003F0DDE9091316F0200F00F10105089E0CBF70
S3150800040065204520B047DDE908010523002205934C
S315080004100A23002CCDE9023207F1FF374FEAD473DD
S31508000420B8BF64422A46019304970A9B00941EF0BB
S31508000430DFFD0246B9F1000F06D00B9BC41A0B9BD1
S315080004401A190E9BA34245D8104613B0BDE8F08F83
S31508000450DDE906ABCDE60022404649461A4B18F0C0
S315080004604BFA013CCDE90C016EE7002D90D00F9BAD
S31508000470002B8DD0013D8BE7FB799F501344D33F6A
S31508000480B3C8608B288AC63F61436F63A787D23F8C
S3150800049071A379094F930A401655B5BBB16B024053
S315080004A0EF39FAFE422EE63F2D431CEBE2361A3FA1
S315080004B00000000080842E41FFFFEF7F0000F83F18
S315080004C00000E03F00002C400000244000001840D7
S315080004D00000F03F2020DDE90913089DA8470134F4
S315080004E0ADE700BF000000002DE9F04F5BEC10AB54
S315080004F097B0CDE90501DDE92057CDE90723504638
S3150800050052465B465946229E18F034FB70B90323BF
S31508000510CDE902760193B04B0093DDE90501DDE9EB
S3150800052007231EF085FC17B0BDE8F08F4FF0FF32A9
S315080005306FF480135046594618F026FB28B1042359
S31508000540CDE902760193A54BE6E74FF0FF32504618
S315080005505946A34B18F036FB68B1A24A06F00403C5
S31508000560002B08BF0322A04B1CBF13460422CDE96B
S3150800057002760192D0E7504693A3D3E90023594661
S3150800058018F020FB38B992A3D3E900235046594600
S3150800059018F0FAFA68B1DDE90723DDE905014BEC45
S315080005A010ABCDE92176209517B0BDE8F04FFFF7DF
S315080005B0DFBD002200235046594618F0E5FA002808
S315080005C000F09A805B4652460020002117F0B2FEE2
S315080005D0012382468B46099316F4806400F08E80C8
S315080005E0092D40F28E80002430210EABA5F10902B8
S315080005F00134202C03F8011BA5EB040901D0944211
S31508000600F6D15946504618F0E7FA784B054603EBFB
S31508000610C90393ED007B8DED0A7B17F0D9FF0246DF
S315080006200B465046594617F085FEDDE90A2318F0B1
S3150800063039F802460B46CDE90C2318F0F5FA804640
S3150800064017F0B6FF02460B46DDE90C0117F072FEFD
S3150800065002460B46CDE90C230022654B18F0B2FA88
S31508000660002851D008F10108404617F0A1FF0246BC
S315080006700B46DDE90A0118F091FA10B14FF00008AF
S315080006800135B9F1000F50D1284617F0A1FF0246EF
S315080006900B465046594617F04DFE0022544B8046ED
S315080006A0894618F071FA30B1002240464946504B47
S315080006B018F088FA10B1E80700D501350A210EAB03
S315080006C01A19202C0AD095FBF1F001FB105530358C
S315080006D002F8015B013405460028F2D106F0030250
S315080006E0012A57D1002F55D0099A12B916F00C0FC6
S315080006F000D0013F302245E009906DE74FF006092A
S315080007007FE7A94600247CE70022DDE90C01384B87
S3150800071018F03AFA0028B4D1B8F1000F02D018F050
S31508000720010FAED008F10108ABE70A210EAB23444E
S31508000730202C0ED0B8FBF1F001FB1082B8F1090F9E
S3150800074002F1300209F1FF3904F1010403F8012B23
S3150800075011D83021A1440EAA202CAFD0A14504F10E
S3150800076001030AD11C4609F158030DEB03092E2390
S3150800077009F8203CA2E78046DAE7A1541C46EBE7D5
S315080007801A550134A74205D9202CF9D1CDE90276AC
S315080007900194C1E6202CF9D0099A3AB12D2104F129
S315080007A058026A4402F8201C0134EFE7710704D5A1
S315080007B004F158022B216A44F4E73207E6D504F11E
S315080007C0580220216A44EDE70000000065CDCD41BE
S315080007D00000000065CDCDC1C1B00208C5B0020851
S315080007E0FFFFEF7FB8B00208BDB00208D0B002081C
S315080007F00000E03F0000000007B588B10BA3D3E96D
S3150800080000230949C1E90223CDE900234FF0FF324D
S315080008104FF0FF33086925F01FF903B05DF804FBB4
S3150800082000220023EDE700BFE00A00200DD50155A0
S31508000830200000000348044B834202D0034B03B157
S31508000840184770470C2800200C28002000000000DC
S31508000850064B0749C91A891048BF0131491003D008
S31508000860044B0BB101481847704700BF0C280020FD
S315080008700C2800200000000010B5064C237843B968
S31508000880FFF7D8FF044B13B10448AFF300800123E8
S31508000890237010BDB423002000000000D0F5020824
S315080008A008B5054B1BB105490548AFF30080BDE8FF
S315080008B00840FFF7CDBF00BF00000000400D002034
S315080008C0D0F50208A3F5803A704700BF174B002BF6
S315080008D008BF134B9D46FFF7F5FF00218B460F46D1
S315080008E01348144A121A25F085FE0E4B002B00D029
S315080008F098470D4B002B00D0984700200021040094
S315080009000D000D48002802D00C48AFF3008018F0FF
S31508000910C1FD200029001BF00BFF18F035FB00BFB6
S31508000920000008000000000000000000C00A0020C7
S31508000930C00A0020E024002000000000000000009B
S3150800094070B5094B0246197818240023074DD8B20A
S31508000950814201D8FF2005E0013304FB03F6AE5DB2
S315080009609642F4D170BD00BFC0230020400D002080
S3150800097030B52B4C87B0237863BB2A492A4810F038
S3150800098073FA054620B3294C294920681DF04DF90C
S31508000990284920681DF049F91BF03AFF1BF039FF7A
S315080009A0254B264A009326494FF40E7320681DF0FE
S315080009B03CF924492B46244A20681DF036F9284676
S315080009C000F058FF214920681DF02FF900BEFDE709
S315080009D001232370134B03201D7800F005FFE8B1AF
S315080009E0124C1B4920681DF020F91BF011FF1BF063
S315080009F010FF0D4B17491A7804925A7803929A7881
S31508000A000292DA7801921A790092134A5B79002DDC
S31508000A1008BF0A46206811491DF007F907B030BD1E
S31508000A20BD230020B6230020B7230020CC110020C8
S31508000A30C1970208F696020880990208FB960208F2
S31508000A4004970208139702081097020828970208C5
S31508000A5039970208E6960208D89602083E970208D1
S31508000A600022F8B54FF0FF0C4FF0FF303F267F25E8
S31508000A7001247C21134B144F1A70144B0132042A9B
S31508000A8083F800C0986098811F611E755D709C7020
S31508000A90D970197103F11803F0D1032000F0A4FEF0
S31508000AA070B10B4C0B4920681DF0BFF81BF0B0FE67
S31508000AB01BF0AFFE20680849BDE8F8401DF0B5B840
S31508000AC0F8BD00BFC023002000007AC4580D0020DE
S31508000AD0CC11002039970208739702082DE9F047D0
S31508000AE02DED028B0368A94A23F47F4323F00703FD
S31508000AF0934204468AB000F0368341D8A44A93420A
S31508000B0000F0678226D8A2F5A022934200F0F3806F
S31508000B1002F58022934200F09181042000F064FEE1
S31508000B20002800F096819B4D9B4928681DF07DF8AA
S31508000B301BF06EFE1BF06DFE22689849286822F4A9
S31508000B407F4222F007020AB0BDEC028BBDE8F047EF
S31508000B501DF06BB8924A934200F08D8302F540323D
S31508000B609342DAD10079FFF7EBFEFF2800F0718196
S31508000B7018228C4B02FB0033D4F805209A6068E1F2
S31508000B80894A934200F0DF844AD802F17F429342B1
S31508000B9000F0C78402F540329342BED10779384641
S31508000BA0FFF7CEFEFF28054600F053817F4E3278C8
S31508000BB0022A40F0EB8218217A4B01FB0033996830
S31508000BC04B1C00F046813846794B0DF01DFA054658
S31508000BD0002800F0D8826F4C764920681DF025F869
S31508000BE0754920681DF021F81BF012FE1BF011FE56
S31508000BF0724B734A009373494FF4A07320681DF033
S31508000C0014F871492B46714A20681DF00EF82846DB
S31508000C1000F030FE6E4920681DF007F800BEFDE7BB
S31508000C206C4A93427FF479AF0079FFF789FEFF2873
S31508000C30074600F00E816389564D042B40F2B483B3
S31508000C40637BA27B94F90F0003EA0206FF2E94F950
S31508000C50101004D17F2802D1002900F0818307EE05
S31508000C60901A42EA002243EA02231E02F8EEE70A35
S31508000C70B2EE040A361218F01DFD07EE906AF8EE79
S31508000C80E77A27EE800A1822464B02FB073383EDE4
S31508000C90040A227B12F0010F0CBF432246221A7562
S31508000CA020790DF0DFF90646002800F091834149C6
S31508000CB028681CF0BAFF404928681CF0B6FF1BF0EC
S31508000CC0A7FD1BF0A6FD3D4B3D4A00933D4940F26A
S31508000CD07F1328681CF0A9FF3B4933463B4A28681E
S31508000CE01CF0A3FF304600F0C5FD394928681CF002
S31508000CF09CFF00BEFDE7032000F076FD98B1254D68
S31508000D00354928681CF091FF1BF082FD1BF081FD18
S31508000D10D4F812303149019323890093E388A288D5
S31508000D2028681CF082FFFFF723FE00224FF6FF73A8
S31508000D305021CDE900230846642310F019F805462A
S31508000D4000284DD0134C1B4920681CF06EFF1A4929
S31508000D5020681CF06AFF1BF05BFD1BF05AFD174B61
S31508000D60174A00931749BD2320681CF05EFF1649F1
S31508000D702B46164A20681CF058FF284600F07AFDD4
S31508000D80134920681CF051FF00BEFDE7A0000902C8
S31508000D90A0000600CC110020699902086E99020885
S31508000DA0A0000601580D0020A0000607BF2300205A
S31508000DB0B0990208C1970208F6960208A199020896
S31508000DC0FB96020804970208139702081097020870
S31508000DD028970208A0000907399702089897020879
S31508000DE00121084610F060F8054618B39C4C9D4949
S31508000DF020681CF01AFF9C4920681CF016FF1BF09F
S31508000E0007FD1BF006FD994B994A00939949C123A2
S31508000E1020681CF00AFF98492B46984A20681CF05F
S31508000E2004FF284600F026FD954920681CF0FDFEC3
S31508000E3000BEFDE70022934B1A700AE00379032BE4
S31508000E4007D10025877DDFF854A200F11708AF42C5
S31508000E5004D80AB0BDEC028BBDE8F08708EB0503A1
S31508000E605B7818F80560023B012B09D8A81C0222FA
S31508000E705146404425F094FB8146002800F07083D3
S31508000E8001362E44F5B2E2E7013291444D451BDDA9
S31508000E9018F80920C2B108EB09035B78083B012B57
S31508000EA0F2D8551EEDB21F2D28BF1F2509F10201E4
S31508000EB02A46414402A825F0A8FB05F128030DEBB4
S31508000EC00305002305F8203C032000F08DFC68B1DB
S31508000ED0634D6D4928681CF0A8FE1BF099FC1BF0B1
S31508000EE098FC6A49286802AA1CF09FFE032000F0B5
S31508000EF07BFC68B15A4D644928681CF096FE1BF0C5
S31508000F0087FC1BF086FC3A46614928681CF08DFE72
S31508000F101EB3534C534920681CF087FE524920687B
S31508000F201CF083FE1BF074FC1BF073FC4F4B504AFD
S31508000F3000935049ED2320681CF077FE4E4933464E
S31508000F404E4A20681CF071FE304600F093FC514969
S31508000F5020681CF06AFE00BEFDE74F4B1B78032B8A
S31508000F603FF677AF31460096A27A637AD4F8050041
S31508000F7043EA022363F30F01E27A01230FF018FF15
S31508000F80054618B3364C374920681CF04EFE3649DC
S31508000F9020681CF04AFE1BF03BFC1BF03AFC334B66
S31508000FA0334A00933349F52320681CF03EFE324944
S31508000FB02B46324A20681CF038FE284600F05AFCB8
S31508000FC0344920681CF031FE00BEFDE701222D4B96
S31508000FD032E70221314A007B0DF002F82528054642
S31508000FE062D1022000F000FC60B11D4C2C4920683B
S31508000FF01CF01BFE1BF00CFC1BF00BFC294920689F
S315080010001CF013FE012108460FF04EFF0546002886
S315080010103FF410AF124C134920681CF006FE124923
S3150800102020681CF002FE1BF0F3FB1BF0F2FB0F4BD3
S315080010300F4A00930F494FF4847320681CF0F5FD9E
S315080010400D492B460D4A20681CF0EFFD284600F096
S3150800105011FC104920681CF0E8FD00BEFDE700BF42
S31508001060CC110020C1970208F6960208A199020839
S31508001070FB960208049702081397020810970208BD
S31508001080C3970208BF23002039970208F39702087E
S315080010900598020828970208C0230020B29902087A
S315080010A0179802081C98020820B3AF4CAF4920686D
S315080010B01CF0BBFDAE4920681CF0B7FD1BF0A8FB71
S315080010C01BF0A7FBAB4BAC4A0093AC494FF48673B5
S315080010D020681CF0AAFDAA492B46AA4A20681CF0DB
S315080010E0A4FD284600F0C6FBA74920681CF09DFD14
S315080010F000BEFDE71822A549A6880B78207B5A432F
S31508001100A34C0133A5180B700121EE80A0540FF0F3
S3150800111097FE054620B3944C944920681CF085FD3B
S31508001120934920681CF081FD1BF072FB1BF071FBD4
S31508001130904B914A009391494FF48C7320681CF0A8
S3150800114074FD8F492B468F4A20681CF06EFD284691
S3150800115000F090FB8C4920681CF067FD00BEFDE797
S3150800116002228C4B68E60079FFF7EAFBFF283FF47A
S3150800117070AE1822864BA17902FB0033627942EAE7
S3150800118001229A8165E60323337062E6032A3CD17D
S315080011904FF018087E4F08FB00739A894FF6FF73C5
S315080011A09A423FF456AE08FB05770FF091FE0222ED
S315080011B0B98920790CF040FF054620B36A4C6B4983
S315080011C020681CF032FD6A4920681CF02EFD1BF0D1
S315080011D01FFB1BF01EFB674B674A009367494FF4DA
S315080011E0A67320681CF021FD65492B46654A2068D0
S315080011F01CF01BFD284600F03DFB634920681CF0E7
S3150800120014FD00BEFDE70423BEE7042A7FF421AEE1
S315080012105E4B1B78032B2CD8012108460FF044FEA1
S31508001220054600283FF406AE4F4C504920681CF08E
S31508001230FCFC4F4920681CF0F8FC1BF0E9FA1BF08F
S31508001240E8FA4C4B4C4A00934C4940F25713206835
S315080012501CF0EBFC4A492B464A4A20681CF0E5FC80
S31508001260284600F007FB4C4920681CF0DEFC00BE4F
S31508001270FDE7052388E78079FFF762FB434A137881
S315080012800BB1013B13701821157800FB01112A1ABE
S31508001290D2B23F4C03B202EB420203EB4303D20045
S315080012A0A84288BF0022214404EBC30025F088F930
S315080012B03F26FF204FF0FF327F274FF0010C7C219D
S315080012C005EB450304EBC303344C032D03F1180364
S315080012D031D9304B1B78002B3FF4BBAD01210846B2
S315080012E00FF0E2FD054600283FF4A4AD1E4C1F4949
S315080012F020681CF09AFC1E4920681CF096FC1BF01E
S3150800130087FA1BF086FA1B4B1B4A00931B4940F2CF
S31508001310691320681CF089FC19492B46194A20686C
S315080013201CF083FC284600F0A5FA1D4920681CF02D
S315080013307CFC00BEFDE7013503F8180C43F8102CB9
S3150800134023F80C2C43F8084C03F8046C03F8177CB4
S3150800135003F816CC03F8151C03F8141CEDB2B4E711
S315080013609FED100A8FE400BFCC110020C197020838
S31508001370F6960208A1990208FB9602080497020845
S31508001380139702081097020828970208C02300201E
S31508001390580D0020BF2300206398020800007AC475
S315080013A0939802080000C07F022000F01DFA00286A
S315080013B03FF476AC714928681CF037FC1BF028FA14
S315080013C01BF027FA62896E4928681CF02EFC67E430
S315080013D07F2302A920798DF808300FF015FD182211
S315080013E0684BDFF8E08102FB07339DF80820664F5B
S315080013F05A70664B3A78197891422AD01A700123A6
S3150800140088F80030032000F0EFF958B160492868E1
S315080014101CF00BFC1BF0FCF91BF0FBF95D49286876
S315080014201CF003FC0424DFF8A091DFF8A0A13B78A8
S315080014302868002B68D15146013C1CF0F6FB14F0D5
S31508001440FF04F4D1544928681CF0EFFB88F80040E3
S3150800145003E098F80030002BD4D1032000F0C4F93B
S3150800146058B14B4928681CF0E0FB1BF0D1F91BF07A
S31508001470D0F9484928681CF0D8FB9FED488A414CAA
S31508001480DFF84C81DFF84C91D4ED047AF4EE487A13
S31508001490F1EE10FA28683ED0E28841491CF0C5FBF7
S315080014A0206917F0A7F802460B4628683D491CF044
S315080014B0BCFB227D3C4928681CF0B7FB94F9012047
S315080014C07F2A23D0394928681CF0AFFB3849286899
S315080014D01CF0ABFB3B784BB1364994F903202868DE
S315080014E01CF0A3FB324928681CF09FFB3249286888
S315080014F001361CF09AFB042E04F11804C4D12F49B6
S3150800150028681CF092FBA4E4494695E72C4928680C
S315080015101CF08BFBDAE73B780BB94946E8E741460E
S31508001520E6E70079FFF70CFAFF2818BF1822154BD3
S315080015301EBFA17902FB0032D170182202FB0033CC
S3150800154000229A7085E40079FFF7FAF9FF283FF43C
S3150800155080AC18220B4B02FB0033A2791A7178E48F
S315080015600FF0B6FC1C220646494603A894F90D70EE
S31508001570A57DCDF8089025F03DF887E41798020870
S31508001580C3980208580D0020BE230020B52300206A
S3150800159039970208F7AE0208C197020800007AC414
S315080015A022970208199902081F9902082399020826
S315080015B02C99020830990208FA98020867990208D5
S315080015C028990208E0270020FC980208E7980208F4
S315080015D04A99020835990208024A137883F00103EA
S315080015E013707047BE2300200022014B1A807047F3
S315080015F07823002010B527F006FE054A148814B192
S31508001600631E0124138027F0F9FD204610BD00BF94
S31508001610782300201FB5094B094A1868094B01A908
S315080016201860094B1360094A0192094A1268CDE904
S3150800163002231BF021FF05B05DF804FBF824002007
S31508001640E8140020EC140020EC2400202D9A02084F
S3150800165074100020014B18681BF022BFF8240020E4
S3150800166038B504F059F90446064D2B68D3F8B0028C
S3150800167004F046F928681BF026FF2046BDE83840E6
S3150800168004F03EB9F8240020064B1B681A7A022A91
S3150800169004D812B11B68044A13607047032AF9D0AC
S315080016A0704700BFFC2400207410002070B51F4D41
S315080016B0A2B00BAC0FCD0FC495E80F0084E80F005D
S315080016C000244FF47023CDE902440494019313AD2A
S315080016D001AE0FCE0FC5164BCDE9074409942B6012
S315080016E0144B18AD069306AE0FCE0FC52022124B2B
S315080016F013A92B60114B12481D93124B2094CDE968
S315080017001E23114B0BAA2193104B04F0A3F9044690
S315080017109DF87F304FF4E130002B0CBF03210021E8
S315080017201BF0B6F8204622B070BD00BF489A0208E2
S315080017303C00015B01000F004400015BC12300204F
S315080017403411002000010100102500207810002027
S3150800175029B9074B186803684BB104F0B1BD0129D4
S3150800176005D1034B186803680BB11CF05DBC7047C4
S315080017702425002008B50449044804F095FEBDE870
S315080017800840FFF793BF00BF282500205C11002002
S3150800179001481CF078BA00BF34110020014B5A6A80
S315080017A0186810473411002018B1034B1860002040
S315080017B070472520704700BF6411002010B5054CFE
S315080017C00549206800F0D8FE2068BDE81040FFF7FC
S315080017D0EBBF00BF5C26002030250020014B1868AF
S315080017E0704700BF641100200B4B02461B7883B17B
S315080017F00A4B1B78834234BF00200120084B1B7814
S3150800180033B1084B1B78134113F0010F08BF0020B2
S3150800181070470120F2E700BFE3270020E2270020F7
S31508001820E1230020E1270020012208B5074B1A70A2
S315080018300022074B1A700422064B1A701F22064B09
S315080018401A7004F069F8054B186008BDE3270020F4
S31508001850E1230020E2270020E1270020CC11002008
S31508001860024B034918681CF0E0B900BFCC110020F0
S31508001870689A020870B50C4C0C49064620681CF09C
S31508001880D4F904F049F80546206804F039F83046DA
S31508001890FFF7E6FF284604F033F820680449BDE858
S315080018A070401CF0C2B900BFCC1100206A9A020829
S315080018B06C9A020808B5034827F0E9FDBDE8084018
S315080018C01AF058BF4CAF0208014827F0E0BD00BF28
S315080018D04CAF020813B508201BF04BF8FFF77EFF44
S315080018E00123009390F83630124C022B20601FD14A
S315080018F0006802F007FB236820F07F4093F8353034
S31508001900023B012B94BF0323002340EA8370019016
S3150800191068461AF081FF0222074B6846CDE9002384
S315080019201AF07AFF082002B0BDE810401BF02CB868
S315080019300020E0E7D0110020006A18100348044A86
S315080019400449121A92101AF0B2BF00BF80010008AB
S3150800195080010008E024002008B5154B83F30A88A7
S3150800196000F030F8FFF7EAFF124B13498B4212D307
S315080019700020124B12498B4218D3FEF7A7FF1868AE
S3150800198050F82240586840F822400132986882424E
S31508001990F5D30C33EAE70022F8E71C6844F822007E
S315080019A001325C68A242F8D30833E4E70022F8E77C
S315080019B000000020D8F50208E4F50208E4F502085C
S315080019C0E4F502084FF48041124B134A70B59A6049
S315080019D0D3F88820114D42F47002C3F88820104AC3
S315080019E005F5005491664FF0FF3222660D4A62668D
S315080019F00222C3F8D020BFF34F8FBFF36F8F4FF487
S31508001A004036002003F06EFF0020E66003F024FF56
S31508001A102E6170BD00ED00E0000000080080004463
S31508001A2000900050F7FF3700014B1860704700BF61
S31508001A3064260020054B1860054B1B6F03F007034F
S31508001A40032B01D126F0A8B9704700BF6C260020E9
S31508001A500080005070B5D0B1C9B10E4E431E013991
S31508001A6013F8014F2046325D02F00302012A11F8ED
S31508001A70012F08BF04F12000B55C05F00305012D10
S31508001A8008BF2032801A01D1002CE9D170BD01208F
S31508001A90FCE700BF95F30208002307B52948019320
S31508001AA027F0F5FC4FF44073012204216846ADF88F
S31508001AB0003000F0C3F80122234B0520C3F8442464
S31508001AC001A927F0DFFC002839D1204BD3F8F020F4
S31508001AD042F00102C3F8F020D3F8FC2042F08072ED
S31508001AE0C3F8FC201A4AA3F55D431A60019B194AFC
S31508001AF003F5D52303F2FC43B3FBF2F3164A013B85
S31508001B0013610223C2F8F0304FF48073C2F804332D
S31508001B104FF06043114AC3F8B02F114AC3F8802E1C
S31508001B20D3F8002E42F48072C3F8002EFF2283F801
S31508001B302020D3F8002E22F48072C3F8002E03B0BA
S31508001B405DF804FB4CAF020800D0035000ED00E03E
S31508001B50FF030040F8590D00000004E055CEACC55F
S31508001B60090001004FF06043D3F8802E30B5D20744
S31508001B7015D501240B4D8440D5F8FC2042F080721F
S31508001B80C5F8FC20D3F8002E2243C3F8002E53F8DC
S31508001B902020002AF0D003F82010002030BD1120A4
S31508001BA0FCE700BF00ED00E02DE9F04104460C25F6
S31508001BB04FF00108124E0CB314F001000BD00020B0
S31508001BC024F0010405FB00625768002FF3D09168E2
S31508001BD0C0B2B847EFE72246013020284FEA520242
S31508001BE001D0D307F8D508FA00F20F2824EA020430
S31508001BF0E8D9103805FB0062B432E5E7BDE8F081A4
S31508001C00D411002008B50C4827F041FC192003F030
S31508001C1031FE28B1192003F065FE192003F01CFED9
S31508001C201A2003F027FE28B11A2003F05BFE1A20BB
S31508001C3003F012FE002008BD4CAF02082DE9F04162
S31508001C400E469046054618B30F2923D80378E3B104
S31508001C50012B03D0022B18D0032B1BD13F236A7804
S31508001C60D340DB0716D50D4BD3F81043A4B927F09C
S31508001C70D3FA074642462846314602F017FB38464D
S31508001C8027F0C5FA2046BDE8F08140F2FF33E6E7C3
S31508001C902224F7E72124F5E70224F3E700C00350DE
S31508001CA010B50446E8B10378C3B1012B03D0022B63
S31508001CB014D0032B17D13F236278D340DB0712D504
S31508001CC027F0AAFA0122637821789A4030235943EB
S31508001CD0064B5A5027F09BFA002010BD40F2FF33FE
S31508001CE0EAE72220F9E72120F7E700BF40D00350B2
S31508001CF010B50446E8B10378C3B1012B03D0022B13
S31508001D0014D0032B17D13F236278D340DB0712D5B3
S31508001D1027F082FA0122637821789A4030235943C2
S31508001D20064B5A5027F073FA002010BD40F2FF33D5
S31508001D30EAE72220F9E72120F7E700BF40E0035051
S31508001D402DE9F0410D46164698460446002851D01E
S31508001D5000294FD002784AB1012A42D0022A05D07A
S31508001D60032A3ED0FF2A07D0212041E040F2FF3364
S31508001D706278D340DA07F7D5022E01D9042EF3D1BB
S31508001D8027F04AFA23780746FF2B05D03246204625
S31508001D90296802F0D1FA28602B68013309D1237823
S31508001DA0FF2B06D1144B6078D3F824141AF0ACFF35
S31508001DB0286029684B1C17D00C23104A03FB012204
S31508001DC0069BC2F8048093602378FF2B04D0012376
S31508001DD00B4A8B40C2F82434384627F018FA0020FC
S31508001DE006E03F236278C4E7384627F010FA2D202C
S31508001DF0BDE8F0812220FBE700C00350D411002083
S31508001E0000D0035008B502F047FA054B00F05530EC
S31508001E1020F05020C3F82004BDE80840FFF7C4BEF0
S31508001E2000E0035008B502F037FA054B00F0AA3077
S31508001E3020F0A020C3F82004BDE80840FFF7B4BE90
S31508001E4000E003502DE9F04F9A46564B85B01B78B3
S31508001E5006460F461546DDF83C909DF844B0DDF879
S31508001E605080002B00F09780072A00F296800E9B80
S31508001E70002B00F09280B9F1000F00F08E80129BC3
S31508001E80B3F5006F00F38980012803D1109B002B5E
S31508001E9000F08380444B03EB05131B7B002B7ED09D
S31508001EA0424C10220021684624F0A4FB04EB45149A
S31508001EB01022A7BB3946204624F09CFB43F21003A8
S31508001EC06380BBF1000F03D1E37843F00303E370AB
S31508001ED0364A0E9B02EB451CCCE90193129B69011D
S31508001EE0581E9DF84C30C0F30A0003F003039B0606
S31508001EF043EA001E53582E48012E00EA03004EEA14
S31508001F000003CDF800A0535017D0B8F1000F2ED11A
S31508001F109CF8023068F304138CF8023027E000219D
S31508001F20204624F067FB4FF444736380BBF1000F2F
S31508001F30CED1E37843F03003C9E713230CF1100E32
S31508001F40CCF80C309CE80F008EE80F006FF0030108
S31508001F50DCF81C20109B61F39F02012FCCF81C2093
S31508001F60CCF8143003D1CCF81890CCF804300027FC
S31508001F700D4A290102EB051342F80180159A2846F5
S31508001F805A60694622469F605E7302F0ADF838468D
S31508001F9005B0BDE8F08F0748FAE70748F8E70748AD
S31508001FA0F6E700BFE22300203C1400203C13002083
S31508001FB00F80FFF3028000F0018000F0078000F038
S31508001FC038B5124B05461B78DBB1E0B127F024F98A
S31508001FD00F4A00231146147B54B92B6001251A01B8
S31508001FE001EB03131D738C5027F011F9204638BDF9
S31508001FF00133082B02F11002EDD127F008F9054844
S31508002000F5E70548F3E70548F1E700BFE2230020B6
S315080020103C140020048000F0028000F0018000F0EB
S3150800202038B527F0F9F8002305460B4A147B6CB936
S315080020300133082B02F11002F8D102F001F8074B20
S3150800204028461C7027F0E3F8204603E0284627F0C8
S31508002050DEF8034838BD00BF3C140020E223002008
S31508002060058000F00D4B10B51B78044693B1072880
S3150800207012D827F0D1F80A4B03EB04131A7B2AB1BE
S3150800208000241C7327F0C3F8204610BD27F0BFF8BC
S315080020900448FAE70448F8E70448F6E7E22300208C
S315080020A03C140020068000F0028000F0018000F059
S315080020B0154B13B51868002301908DF8043027F0E6
S315080020C0ABF8124B1C7824B127F0A1F8104802B0DF
S315080020D010BD01221A7027F09AF80E4B01A81C733E
S315080020E01C7783F82C4083F83C4083F84C4083F8EF
S315080020F05C4083F86C4083F87C4008238DF80730F1
S3150800210001F0C2FF2046E2E76F9A0208E2230020A8
S31508002110038000F03C140020F8B50D4D2D7885B1EC
S31508002120072810DC0B4D060105EB0014277B67B169
S31508002130AB510025069BA560636001F0D5FF2846D4
S31508002140F8BD0548FCE70548FAE70548F8E700BF83
S31508002150E22300203C140020028000F0018000F0F9
S31508002160078000F00A4A08B512785AB107280BD832
S31508002170084A02EB00131B7B43B1002101F076FFEE
S31508002180002008BD0448FCE70448FAE70448F8E7D5
S31508002190E22300203C140020028000F0018000F0B9
S315080021A0078000F00A4A08B512785AB107280BD8F2
S315080021B0084A02EB00131B7B43B1012101F056FFCD
S315080021C0002008BD0448FCE70448FAE70448F8E795
S315080021D0E22300203C140020028000F0018000F079
S315080021E0078000F0184B2DE9F0411F6D5B6D1F400D
S315080021F000D5FEE701260025144CDFF85880374243
S3150800220018D02368C8F85060A3B1A16828460131E0
S315080022106268A1609847637B012B0BD150B90C4BC0
S3150800222003EB45131A7B60F341021A731A7F60F3B6
S3150800223041021A770135082D4FEA460604F11004C3
S31508002240DDD1BDE8F08100BF000004503C14002039
S315080022503C1300200020045038B141B1013AB2F5D0
S31508002260006F044838BF002070470348704701488C
S31508002270704700BF037000F0027000F0104930B5D7
S315080022800A78104B2AB9C3E90022C3E902220122BF
S315080022900A700C4900220C4654F8045B854208D0A3
S315080022A00132042AF8D1002251F8044B1CB943F82C
S315080022B02200002030BD0132042AF5D10248F9E790
S315080022C0E3230020BC140020027000F0002313B59D
S315080022D01D4A52F8044B94F8211081420ED001335E
S315080022E0042BF6D102B010BD0028FBD19DF80730AB
S315080022F0002BF7D0A068FFF735FFF3E794F83530E1
S31508002300022BEFD120461AF0F8FB637E2076022BCB
S31508002310E8D194F8323003F0FF02002BE2D1A0682E
S315080023200DF107018DF8072025F0D2FD237E1BB19C
S3150800233094F83330002BD7D00023A06884F83330C4
S31508002340FFF730FFCEE700BFBC14002010B50446E7
S31508002350FFF7AEFE002104F10800FFF731FE014643
S3150800236008B1044810BD04F10C00FFF729FE002847
S31508002370F8D0F6E70E7000F010B590F8363004463F
S3150800238063B9042203685A619A699207FCD52379CE
S315080023900C4AB9335B011021995010BD022BFCD1B0
S315080023A00068836CDB074CBF052106211AF03FFC49
S315080023B0237941F294425B0103F1A04303F570339C
S315080023C0E9E700BF00C003502DE9F041044617466F
S315080023D0FFF742FF88460646E8B9152003F058FA83
S315080023E00546E26A93889BB213B194F83230ABB1D2
S315080023F094F83630BBB923689D6915F0020527D0D5
S31508002400012384F834304744B845206844D18369A9
S315080024109B06FCD545B33046BDE8F081002DE1D0DA
S31508002420FFF7E0FEDDE7022B12D123689D6C15F05D
S3150800243002050DD0012384F8343047444745206807
S3150800244031D142F22002836C32EA0303FBD1E1E781
S315080024502046FFF791FF012394F8365084F834306C
S31508002460002DD0D0022D1CD094F8363003B3022BA1
S31508002470D1D12068816C11F0010118BF09211AF029
S31508002480D6FB42F29442102123795B0103F1A04363
S3150800249003F570339950BEE718F8011B1AF020FCB3
S315080024A0B2E70025C9E718F8011B1AF0E2FBC5E7F1
S315080024B010212379044A03F239135B01D15008220B
S315080024C023685A61A7E700BF00C0035010B5044649
S315080024D080B190F832302BB91AF00FFB10B9A0680A
S315080024E0FFF740FE002094F832300133DBB284F85F
S315080024F0323010BD0048FCE7027000F010B5044603
S31508002500A0B190F832309BB190F83230012B05D14A
S315080025101AF0F3FA10B9A068FFF744FE002094F801
S315080025203230013BDBB284F8323010BD0148FCE79B
S315080025300148FAE7027000F0057000F030B5002592
S31508002540437F85B08DF8083090F821300446042280
S315080025508DF80930039303A9064B009502A8FFF7E7
S31508002560EFFB4FF4007320462383A5761AF0DEFAB4
S3150800257005B030BDCD2200082DE9F04104468EB0E5
S315080025806C4F06AE0D460FCF0FC697E80F0086E8CC
S315080025900F0018220021684624F02CF8002C00F0C1
S315080025A0C78025B9644E30460EB0BDE8F081642276
S315080025B00021204624F01EF802232F6884F83630BE
S315080025C027602B7C20462371FFF758FE0646002815
S315080025D0E9D12B7F84F835300123E365AB682366A0
S315080025E0564B9F4200F09680554B9F42DAD14FF4E6
S315080025F080135449544AC4E904230023616284F8C9
S315080026003130D5E9091284F83030A1624F480B8081
S315080026104B808B8084F83030E2621380538093803D
S3150800262084F8313084F8333026F031FF636ADFF8F6
S315080026302C81986826F02BFF10212B7C08EB43127F
S31508002640C2F894142E7BA87B253346EA0041C2F8CB
S31508002650AC14697BEA7B08EB431341EA02475F60E7
S31508002660E676E077217784F820206B7F012163776F
S31508002670AB7F204684F82130EB7FA37795F820308E
S3150800268084F822301AF0D2F9064600288BD1AB68B6
S31508002690022608936B8A8DF82560ADF82830AB8A38
S315080026A0CDF834D0ADF82630AB7D8DF82430AB6943
S315080026B00B930123ADF8063026F0AEFD2A7F0746B8
S315080026C0032A2CD141F294412B7C08EB43135E502C
S315080026D095F82000E97F41EA004103F5A55001601D
S315080026E0A87F697F41EA004141F29C4019508DF864
S315080026F0002006238DF818302B79286806A9A3B17F
S315080027001AF0C0FA2046FFF721FE0646384626F09C
S315080027107EFD48E74FF470230D490E4A6BE7022AFF
S31508002720E7D12046FFF70AFFE3E71AF0A7FAE9E739
S31508002730094E38E7909A0208037000F00000015B22
S3150800274000000A5064AF0208010010004CAF0208EE
S3150800275070AF020801000F00027000F000C00350BD
S31508002760044BD3F88420D206FBD4D3F88400C0F3F4
S31508002770811070470040005038B5174B0546D3F80E
S3150800278028310C4603F00703013B052B20D8DFE868
S3150800279003F003131B0F0B1725F0D8FA052305B111
S315080027A0286004B1236038BD25F0D0FA0623F6E781
S315080027B025F016FB0723F2E725F008FB0323EEE7CF
S315080027C025F004FB0423EAE725F0FCFA0223E6E7F2
S315080027D000231846E3E700BF00800050002337B502
S315080027E00193164B0546D3F820320C4603F007032F
S315080027F0042B21D8DFE803F0030B11161B00012375
S315080028000DB1019A2A6004B1236003B030BD0021DE
S3150800281001A8FFF7B1FF1223F2E725F0E1FA072333
S315080028200190EDE726F0E4FC0A230190E8E725F09D
S315080028301FFB09230190E3E70023E1E7008000502E
S3150800284038B5104B0546D3F880300C4603F0030321
S31508002850022B0BD0032B0DD0012B0FD125F07CFAC0
S315080028600E2305B1286004B1236038BD25F0B8FAF7
S315080028700723F6E725F06AFA0623F2E70023184647
S31508002880EFE700BF0080005038B5104B0546D3F877
S3150800289000310C4603F00303022B0BD0032B0DD09B
S315080028A0012B0FD125F092FA032305B1286004B154
S315080028B0236038BD25F0DCFA0923F6E725F08CFA03
S315080028C00823F2E701230020EFE700BF008000504D
S315080028D038B5184B0546D3F820010C4600F007001A
S315080028E0062823D8DFE800F0040A0E16121A1E007E
S315080028F0012305B1286004B1236038BD25F026FA06
S315080029000523F6E725F062FA0323F2E725F068FACD
S315080029100723EEE725F056FA0223EAE725F016FA2A
S315080029200623E6E725F052FA0423E2E700231846D1
S31508002930DFE700BF0080005038B5104B0546D3F8D6
S3150800294040310C4603F00303022B0BD0032B0DD0AA
S31508002950012B0FD126F04CFC0A2305B1286004B1DF
S31508002960236038BD25F084FA0923F6E726F043FCF0
S315080029700C23F2E701230020EFE700BF0080005098
S31508002980002337B50193164B0546D3F860320C463B
S3150800299003F00703013B032B1FD8DFE803F0020E01
S315080029A01914002101A8FFF793FF10230DB1019A0E
S315080029B02A6004B1236003B030BD002101A8FFF7E7
S315080029C0BBFF1123F2E725F00BFA07230190EDE789
S315080029D025F0F8F902230190E8E70023E6E700BFAF
S315080029E000800050002337B50193164B0546D3F8EF
S315080029F094320C4603F00703013B032B1FD8DFE88C
S31508002A0003F0020E1914002101A8FFF761FF102335
S31508002A100DB1019A2A6004B1236003B030BD0021CC
S31508002A2001A8FFF789FF1123F2E725F0D9F9072353
S31508002A300190EDE725F0C6F902230190E8E70023A7
S31508002A40E6E700BF0080005038B5104B0546D3F8BE
S31508002A5060310C4603F00303022B0BD0032B0DD079
S31508002A60012B0FD126F0C4FB0A2305B1286004B157
S31508002A70236038BD25F0FCF90923F6E726F0BBFBF1
S31508002A800C23F2E701230020EFE700BF0080005087
S31508002A902E4B98424AD022D82D4B984240D014D873
S31508002AA02C4B984239D00AD82B4B984232D02B4B14
S31508002AB098422FD02A4B98422CD000207047294B99
S31508002AC09842FAD1284B186F7047284B98422AD05B
S31508002AD0274B9842F1D1244BD3F880007047254BF9
S31508002AE098422BD009D8244B984223D0234B98429E
S31508002AF0E3D11D4BD3F88C007047214B984221D067
S31508002B0003F5740303F510539842D6D1164BD3F840
S31508002B1098007047144B986D7047134B586E704762
S31508002B20114B586F7047104B986F70470E4BD3F880
S31508002B30840070470C4BD3F8880070470A4BD3F8CB
S31508002B4090007047084BD3F8940070470048E80196
S31508002B500024F400C0CF6A0080841E0000093D00EE
S31508002B6040420F00405DC6000080E00FC0EA210128
S31508002B7080BA8C01007E560380D54302006CDC02C5
S31508002B800090D00373B50D460021114B0191D3F87F
S31508002B908041064604F00304022C13D0032C0CD003
S31508002BA0012C13D101A8FFF793FE10240EB1019B47
S31508002BB0336005B12C6002B070BD25F011F9072409
S31508002BC00190F3E725F0FEF80190EFE70C46EDE7F4
S31508002BD00080005038B5104B0546D3F840320C46F5
S31508002BE003F00303022B0BD0032B0DD0012B0FD1BF
S31508002BF026F0FEFA0A2305B1286004B1236038BD21
S31508002C0025F036F90923F6E726F0F5FA0C23F2E75C
S31508002C1001230020EFE700BF0080005038B5144BB1
S31508002C200546D3F800020C4600F0070004281BD816
S31508002C30DFE800F003090D111500012305B128602E
S31508002C4004B1236038BD26F0D3FA0A23F6E725F047
S31508002C500FF90923F2E726F0CEFA0C23EEE725F062
S31508002C609BF80F23800AE9E700231846E6E700BF2A
S31508002C700080005038B5144B0546D3F808020C46B8
S31508002C8000F0070004281BD8DFE800F003090D113F
S31508002C901500012305B1286004B1236038BD26F06C
S31508002CA0A7FA0A23F6E725F0E3F80923F2E726F060
S31508002CB0A2FA0C23EEE725F06FF80F23800AE9E75E
S31508002CC000231846E6E700BF00800050B0F5207FD5
S31508002CD01FD009D8B0F5007F15D003D868B1B0F574
S31508002CE0C07F0AD000200CE0B0F5607FFAD10B4B0C
S31508002CF0D3F88000C0F3011003E0084B186FC0F347
S31508002D00033001307047054BD3F89000C0F30460D8
S31508002D10F7E7024B186FC0F38020F2E700800050F7
S31508002D2002464FF48030104B10B598660020FFF726
S31508002D30CDFF504341F671320C4BDC69DA635A68B1
S31508002D4004F4803422F4401259B90949884294BFE0
S31508002D5000200120000502435A600CB10022DA6304
S31508002D6010BD0449F2E700BF009000500000035070
S31508002D70005A6202002D3101430905D0012B0CD0FF
S31508002D80022B084B18BF002300F01F0039B103F5CA
S31508002D908053012282401A607047034BF4E703F51B
S31508002DA00053F6E768800050648000501FB5002184
S31508002DB0B0F5807F0446CDE9001100F0D2803AD8FC
S31508002DC05E2833D85E2833D8DFE800F04532323241
S31508002DD032323232323232323232323232323232C5
S31508002DE032323232323232323232323245AC45AC9B
S31508002DF0BCBCBCBCBCACC64E6BDC4EACACAC32325C
S31508002E00323232323232ACACAC7EE6AC32323232AC
S31508002E10323232323232323232BC454545E14E4EDA
S31508002E20EB8D63C132323232329E4500802870D033
S31508002E30009804B010BDB0F5D06F00F0A38035D867
S31508002E40B0F5607F79D01AD8B0F5007F65D005D87F
S31508002E50B0F5C07FECD124F09FFF5CE0B0F5207F91
S31508002E6060D0B0F5407FE3D124F096FF02464FF4D8
S31508002E702070FFF72BFFB2FBF0F252085BE0B0F5CB
S31508002E80B06F69D00AD8B0F5806F5BD0B0F5A06F87
S31508002E90CED100216846FFF7A1FCC9E7B0F5C06F9F
S31508002EA0C6D100216846FFF747FDC1E7B0F5106FA8
S31508002EB06DD00ED8B0F5086F78D0B9D8B0F5E06FF8
S31508002EC06AD0B0F5F06FB3D100216846FFF7BCFDB4
S31508002ED0AEE7B0F5406F3AD013D8B0F5206F60D0A2
S31508002EE0B0F5286FA4D10021324B0391D3F8703284
S31508002EF003F00303012B02D103A8FFF71DFD039B73
S31508002F0039E0B0F5486F93D100216846FFF76AFDAE
S31508002F108EE724F021FF00908AE724F01DFF024681
S31508002F20204604E024F038FF02464FF42070FFF7ED
S31508002F30CDFEB2FBF0F200927AE701A8FFF780FC1B
S31508002F40019AEDE700216846FFF7C2FC70E7002109
S31508002F506846FFF711FC6BE700216846FFF712FE8B
S31508002F6066E74FF0E02302911B695B0705D524F05D
S31508002F7013FF0290029B00935AE703A902A8FFF7E2
S31508002F80DBFCF7E700216846FFF748FE50E700211B
S31508002F906846FFF76FFE4BE700216846FFF71AFE03
S31508002FA046E700216846FFF7EBFC41E76846FFF76E
S31508002FB06BFC3DE70080005008B58020FFF7F6FE61
S31508002FC0034B98429EBF4FF48032024B1A6708BDE6
S31508002FD0005A620200A000501FB503460020B3F550
S31508002FE0807F019000F0C58065D85D2B56D84C2BA4
S31508002FF007D82D2B48D8232B2CD8019805B05DF877
S3150800300004FB4D3B102BF8D801A252F823F000BF61
S3150800301069310008FB2F0008FB2F0008FB2F00086A
S3150800302017310008FB2F0008FB2F0008C3310008E2
S3150800303035310008DB300008B9310008FB2F0008DD
S31508003040FB2F0008FB2F0008FB2F0008FB2F0008AA
S31508003050CD310008243B092BCFD801A252F823F022
S3150800306069310008693100086931000869310008CA
S3150800307069310008FB2F00085F310008FB2F0008A4
S31508003080F73000089F3100083D2B00F083803E2B67
S31508003090B3D1002001A9FFF79DFDAEE7802BACD187
S315080030A0504B1B6F03F00703013B032BA5D8DFE842
S315080030B003F0544D5052B3F5F06F6BD020D8B3F5EA
S315080030C0B06F4CD00ED8B3F5607F71D095D3B3F5F9
S315080030D0806F49D0B3F5A06F8FD1002001A9FFF703
S315080030E07DFB8AE7B3F5D06F59D0B3F5E06FD0D042
S315080030F0B3F5C06F81D1002001A9FFF71DFC7CE75D
S31508003100B3F5206F5DD00BD8B3F5086F4CD0B3F587
S31508003110106F7FF472AF002001A9FFF7ABFD6CE7D3
S31508003120B3F5406F48D0B3F5486F4FD0B3F5286F65
S315080031307FF463AF2B4BD3F8703203F00303012BF4
S3150800314049D0022B0CBF1523002300E00523019369
S3150800315053E70323FBE70823F9E70223F7E70020F1
S3150800316001A9FFF70FFD48E7002001A9FFF7B0FB0B
S3150800317043E74FF0E02302901B695B0705D524F06F
S315080031800BFE0D230393039BE1E703A902A8FFF7B0
S31508003190D3FBF8E7002001A9FFF756FC2DE700202E
S315080031A001A9FFF73BFD28E701A9FFF76DFB24E717
S315080031B001A9FFF745FB20E7002001A9FFF7DCFA84
S315080031C01BE7002001A9FFF7DBFB16E7002001A992
S315080031D0FFF708FC11E7002103A8FFF7ADFB112351
S315080031E0B5E700BF008000504FF48032074B08490E
S315080031F0586E03F580535A664B6A23F001034B62F7
S31508003200C3035CBF034B5A66704700BF008000507B
S3150800321000C0075000A0005008B5FFF7DDFE0928DA
S3150800322011D00A38012802D94FF6FF7008BD4FF4AD
S315080032308002064B5A6603F5D8335B6ADB07F3D57B
S315080032404FF4FA70F2E7024B1888EFE70090005047
S31508003250CE27002008B5FFF7BFFE03280ABF024B9A
S315080032604FF6FF70188808BDCC27002038B50446ED
S315080032708020FFF7B1FE032800F083804FF4801208
S31508003280524B4FF0A0615A6645F60E02504BC3F8F2
S315080032908020504A91624FF4803102F58052916243
S315080032A09A6DD203FCD4996D11F08041FBD1D4E913
S315080032B00002120542EA0062E07B0243207B42EAF2
S315080032C00042607B42EA0032A07B42EA80121A6121
S315080032D09869D4E90452120642EA856200F0004071
S315080032E00243A07EE57E0243207E42EA0042607EDB
S315080032F042EA00229A611A6AE06922F00F0242EA5B
S315080033008502354D00283DD11A6294F82420996A21
S3150800331094F82000D200294042EA40120A4394F861
S31508003320211042EA011242F480329A622B49284A55
S31508003330936D31EA0303FBD14FF080712548816212
S315080033401369A56823F4700343EA055313614FF024
S315080033500043836194F822300BB9214B996294F8A3
S3150800336023303BB94FF480321D4B9A62184A936D4D
S315080033705B00FCD494F825301BB1154B194AC3F8E9
S31508003380802038BD024342F0080202281A6208D19A
S3150800339019614FF40852996113484FF47F4119F0A7
S315080033A001FC0B4994F822308A6A94F820001B061F
S315080033B02A4043EA4013134394F8242043EAC203FD
S315080033C094F8232043EA02438B62D3E70090005027
S315080033D00040005A0050005AC7FFFEFE03000100D5
S315080033E00060005AF1A7FFFF3440005A014B93F9D9
S315080033F000007047E4270020F0B5D0E901434FF4F8
S3150800340000061A4A4178057856664FF4D1560227BF
S3150800341002F5B8325662164E4F2977604FF001070B
S3150800342028BF4F2106F5805677601669F603FCD447
S3150800343041EA052151611B01417B43EA04230B4301
S31508003440017B43EA41039360C37B817B1B0143EA0B
S315080034504113417C0B43017C43EA41035360837C5F
S3150800346013B16FF4D1535362F0BD00BF0090005002
S3150800347000100250014B1880704700BFCE2700206D
S31508003480014B1880704700BFCC2700204FF48002FC
S3150800349008B5184B5A660223174A5360936813F403
S315080034A08033FBD1012822D124F090FC134B98429B
S315080034B015D003F5122303F5F863984213D0104B81
S315080034C000EB8002400AB3FBF0F3520A0A49CA62CB
S315080034D00B6301234B620022074B5A6008BD45F671
S315080034E07A13084AF2E745F61A03074AEEE75362E3
S315080034F0F1E700BF009000500040025000F049027A
S3150800350064666666D8B80500BBCF0500B0F5207FAF
S3150800351010B50C465DD008D8B0F5007F4ED003D85C
S31508003520C0B1B0F5C07F15D010BDB0F5607FFBD136
S315080035302C4B4C1ED3F8FC202B4912F0807F4FEA07
S31508003540041427D1D1F8803023F030032343C1F87F
S315080035508030E9E719F035FB19F041FB4FF480316B
S31508003560224B214A1967136F013C23F4704343EA3F
S315080035700433136724F010FC0446FFF7F1F8C0F192
S315080035800201204619F025FB00F04AF8BDE8104074
S31508003590FFF712BDD3F8FC2022F08072C3F8FC2096
S315080035A0D1F8802022F030022243C1F88020D3F8D7
S315080035B0FC2042F08072C3F8FC20B5E70A4A4C1E8C
S315080035C0D2F8903023F0F85343EA0463C2F89030F7
S315080035D0AAE7054A4C1E136F23F4806343EA842343
S315080035E01367A1E700ED00E000800050009000504E
S315080035F008B50121022000F073F94FF42070FFF797
S3150800360065FB054B187019F0DCFA19F0E8FA4FF467
S315080036108032024B1A6708BDE42300200090005050
S3150800362008B54FF4C070FFF7C1FBBDE80840044970
S31508003630884294BF012102214FF42070FFF766BF2C
S3150800364080F0FA0238B5044624F0A6FB0546FFF7D3
S3150800365087F8C0F10201284619F0BBFA01210020BB
S3150800366000F07EF92CB1FFF7DBFFBDE83840FFF725
S31508003670A3BC034B4FF420701978FFF747FFF4E714
S31508003680E42300204FF4C02270B50546FFF700FA80
S31508003690314B04465A6603F598335A68012A04D111
S315080036A02E494A605A689207FCD48020FFF794FC9A
S315080036B0052807D119F085FA19F091FA4FF48032E6
S315080036C0254B1A67264B24F040749D4230D0254B73
S315080036D09D4230D024F03AFB8542064603D90121A3
S315080036E0284600F03DF9204BDA6812F0060FFBD1A8
S315080036F099689C609A68624012F4F81F1ED12846A1
S31508003700FEF792F98020FFF767FC05280DD124F013
S3150800371043FB0446FFF724F8C0F10201204619F0DE
S3150800372058FAFFF77DFFFFF747FCAE420CD270BD93
S3150800373044F00074CEE744F08074CBE780209960AB
S31508003740FFF74AFC052805D0BDE870400121002096
S3150800375000F006B93546DAE70090005000E001505F
S3150800376040420F0080841E0000000150304B314A51
S31508003770984251D020D8A3F5B703A3F558639842C9
S3150800378046D00DD82C4B984231D02C4B984239D084
S315080037902B4B4FF4002198421DD00023516622E09E
S315080037A0284B4FF400219842F7D1274BD3F8BC3069
S315080037B0516623F0407316E0244B984230D0244BD0
S315080037C0984231D0234B4FF400219842E5D11E4B45
S315080037D0D3F8C830ECE71C4BD3F8A030516623F079
S315080037E0407343F000734FF0B442936070474FF450
S315080037F00021154BD3F8A030516623F0407343F0EF
S315080038008073F0E7104BD3F8A0304FF40021CFE7D0
S315080038100D4BD3F8B830F8E70B4BD3F8C030F4E7C4
S31508003820094BD3F8CC30F0E7074BD3F8D030ECE7A8
S31508003830C0EA21010090005080841E0000093D0066
S3150800384040420F000024F4000080E00F0048E80121
S31508003850005A620280BA8C01024A536B0342FCD1B9
S31508003860704700BF00400950044A4178536F23F45B
S31508003870407343EA01235367704700BF0040005076
S315080038800E4A10B51369044643F00403136125F084
S3150800389015F919F0A9F90A4B5B6E5B0142BF094B92
S315080038A0094AC3F8202430BF19F09FF902F04AFFED
S315080038B01CB9BDE8104024F06FBA10BD00ED00E059
S315080038C00080005000E003500000FF0F034A017912
S315080038D0D36E23F030030B43D36670470040005085
S315080038E0F8B504461C4BD3F88420D106FBD4D3F88C
S315080038F08430C3F381139C422CD024F02DFA012C7A
S31508003900064602D1214619F064F925F07CFC4FF0F1
S315080039100072124B07465A66204619F069F94FF4A9
S3150800392080630D4D621E93402B676B6E9A0103D41C
S31508003930D5F884309B060AD5384625F05FFC022C5C
S3150800394008D13046BDE8F840002119F042B9D5F84B
S315080039508430EAE7F8BD00BF004000500060005020
S3150800396010B50C4608B924F0F7F9074B21461B7821
S315080039703BB1064B984204D80120BDE81040FFF73A
S31508003980AFBF0220F9E700BFE5230020005A620214
S315080039900278034B012100201A70FFF7E1BF00BF30
S315080039A0E52300204FF0004238B5244B244C5A66D4
S315080039B04AF6CD33656C014605F00105236428BB3C
S315080039C00120FFF749FF6368DB0715D51D4B5860D3
S315080039D008461D4B226BD2070CD4984208D10724FF
S315080039E015B1174B194A1A6422F054F8204638BD07
S315080039F00130EFE79842F2D00024F1E70132236B59
S31508003A0013F0080305D08A42F8D1E8E700220E49E8
S31508003A10F5E78A42E3D020210A4A91620121A2F5FC
S31508003A20805251600649084A886A800603D4934240
S31508003A30D5D00133F8E79342DDE700BF0090005088
S31508003A40004009500060095040420F003254FFFF01
S31508003A504FF0004238B5164B01465A664AF6CD3342
S31508003A60144C154A656C236443780B205B0043F0BD
S31508003A700103D363FFF7F0FE63688A7823F4F873CB
S31508003A8043EA02136360CA784B7943EA0223A360C8
S31508003A900A798B7943EA022323610878FFF782FFC4
S31508003AA0EB0744BF054B236421F0F4FF012038BD22
S31508003AB00090005000400950004000503254FFFF6B
S31508003AC04FF00042124B70B55D6E03F580535A668F
S31508003AD04AF6CD3304460F4980204E6C0B64FFF737
S31508003AE0BBFE0B6A23F00F030F2C94BF234343F04E
S31508003AF00F030B62F30744BF074B0B64002DA2BFED
S31508003B004FF00042054B5A6621F0C4FF70BD00BF56
S31508003B1000800050004009503254FFFF00A00050BA
S31508003B204FF00042104B70B55D6E03F580535A6630
S31508003B304AF6CD3304460D4980204E6C0B64FFF7D8
S31508003B408BFE0B6A23F4F85343EA04230B62F3074C
S31508003B5044BF074B0B64002DA2BF4FF00042054B34
S31508003B605A6621F097FF70BD00800050004009504A
S31508003B703254FFFF00A0005010B519F03EF8042398
S31508003B8000F5805100F500520B6113610B6113615A
S31508003B900B6113610B611361202341F2020103617A
S31508003BA00023C360836041614FF4A021836183656C
S31508003BB041620549C36103628362C3624363036565
S31508003BC0D164036310BD00BFFF3F0D0370B5054602
S31508003BD01446084641B9354B9D4218D0344B9D4290
S31508003BE008BF5720FFF7E2F8AB6813F0010F6B68C0
S31508003BF030D0B0FBF4F4D80704F1FF344FEA04647C
S31508003C0007D42B6923F07F4323432B6170BD5620CD
S31508003C10E8E72821284618F0ECFFAB6C990715D180
S31508003C20AB6CDA0714D4AB6C13F0020F14BF06267C
S31508003C300026284618F0E1FF2B69314623F07F431A
S31508003C4023432B61BDE8704018F0F1BF0526F0E765
S31508003C500926EEE7AB6DDB07AB6848BF640003F0E7
S31508003C60E003402B1BD004D8DBB1202BCED1082390
S31508003C7004E0602B17D0802BC8D101236343410190
S31508003C80B1FBF3F20B4B203A284603EAC2020121A4
S31508003C9018F0AFFF2A63BDE8704018F0AABF0623E4
S31508003CA0ECE71023EAE70423E8E700BF0000015B1E
S31508003CB000000A50F8FF7F002DE9F0419846436856
S31508003CC004460E4617461BB140F6FF7118F091FFE1
S31508003CD02046FFF751FFF189737B62690B43318AEE
S31508003CE022F44C5222F00F020B4313436361A2687D
S31508003CF096F818C0337B22F0804222F0E2024CEAA2
S31508003D000303134372691343B268A3601AB9A3681D
S31508003D1043F00043A360F06904F58053002878D087
S31508003D20857A017A6D04D4F808E045EA81556E492A
S31508003D300EEA01010D43818801F4C0410D43417823
S31508003D4045EA8105417B45EAC105817B45EA0115BE
S31508003D50817845EA8125A560D4F80CE0D0E90415F8
S31508003D602943624D0EEA05052943857941EA8521ED
S31508003D70C57941EA4521E16001785D4D012914D1F3
S31508003D80E16841F00401E160AC4200F092805949D3
S31508003D908C420CBF01214FF0FF31490101F1A041CE
S31508003DA042F2944501F5703114E003297BD1E168AC
S31508003DB041F00401E160AC4279D04E498C420CBF17
S31508003DC001214FF0FF3141F29445490101F1A0412B
S31508003DD001F570314FF0020E41F805E0417A99621B
S31508003DE019B1E16841F40061E160C17A59B1E1684D
S31508003DF041F40041E1603E498C425CD1017B3E4D75
S31508003E0001F00F016967616AC07B21F00301014374
S31508003E1061622FB197F82010002956D00121196246
S31508003E20B8F1000F2DD0BCF1000F02D04FF40041BD
S31508003E3099652F49B8F822508C4298F8211051D02C
S31508003E402C48844213D10120112934BF4FF0010CAC
S31508003E504FF0020C294FB5F5006F07F800C094BF64
S31508003E604FF0010C4FF0020C254F07F800C0A06D6B
S31508003E70294320F4F95020F01E000143A1650121D1
S31508003E809965012159601AB120467168FFF79EFEAF
S31508003E902046317818F0CBFEA36CDB4313F4405F61
S31508003EA0FAD1BDE8F0810239012984D96CE70021ED
S31508003EB089E7002171E70F498C4201BF017B0E4D4E
S31508003EC001F00F01C5F880109DE7E06997F8221008
S31508003ED097F8215020F009002943014341F00101D8
S31508003EE0D9619DE70020AFE7E39BBDFFFFF9F087A7
S31508003EF00000015B00000A5000900350E8230020F0
S31508003F00E62300202B4B2DE9F0419842064612D0B5
S31508003F10294886420CBF57200020FEF747FFB168A4
S31508003F2011F0010109D03169090E0131B0FBF1F137
S31508003F300846BDE8F0815620EFE7346BB3681F4AA0
S31508003F4003F0E003402B02EA040210D007D84BB373
S31508003F50202B2BD0B36DDB0748BF4908E8E7602B59
S31508003F6026D0802BF6D14FF480750C461CE08025B0
S31508003F700C46032302F5807803FB08F80023424623
S31508003F80194614F071FE02FB04F100FB05F705FB68
S31508003F900311A2FB050500234246294414F064FEDA
S31508003FA03918D7E710251C460123E3E71D46DCE749
S31508003FB04025DAE70000015B00000A50F8FF7F00A1
S31508003FC02DE9F04105460F461E4690464AB10123A3
S31508003FD03022194C8B4002FB004436B304F5825458
S31508003FE023600F21072F05EB450388BFA7F10804B7
S31508003FF04FEA0313114895BFBC00A40004330C33E1
S3150800400008FA04F2A140184418F03EFEB8F1000F71
S3150800401009D101233021084ABB4001FB05223EB1E4
S3150800402002F582521360BDE8F08104F50154D7E722
S3150800403002F50152F6E700BF00C0035030C0035036
S3150800404010B5152001F0F6FB0024FF22064B214689
S315080040505C6520209A625C60FEF78EFE2146BDE80C
S3150800406010402120FEF788BE00000450044A054B84
S31508004070002908BF1346012282401A60704700BF14
S31508004080401004504020045010B501210446202059
S31508004090FEF772FE01212120FEF76EFE0122114B6A
S315080040A015205A60227812069A606178A27842EA48
S315080040B001429A61FF229A6200229A631A644FF0BB
S315080040C000425A654FF0FF3203F500531A6501F0B6
S315080040D009FC1520E17819F068FDBDE810401520A7
S315080040E001F0BABB00000450F8B50125C3B2D1F8F7
S315080040F000C08F7A0E7B0C469D40CB7A1C491B0567
S315080041000D65810001F1A04101F58821C1F804C0BF
S315080041104FF0300C0CFB00F0617B00F1A04043EA45
S31508004120074300F5802043EA465322F0030201665E
S31508004130C365026725F070F80E4B227A5D6502B1F9
S315080041401D64627A02B19D632279A37943EA024328
S31508004150074A93616179E37943EA014305498B612B
S31508004160054B55639D64BDE8F84025F050B800BF7F
S3150800417000200450001004500000045010B501241B
S31508004180C0B2844025F048F8044B5A6D22EA04026E
S315080041905A659C62BDE8104025F039B80000045005
S315080041A010B50124C0B2844025F036F8074BDA6A08
S315080041B0224208D15B6B9C430CBF0124002425F0E6
S315080041C026F8204610BD0024F9E700BF0000045079
S315080041D070B5054625F020F83022084B5E6B02FBC9
S315080041E005335C6E25F013F80123EDB2AB4033427C
S315080041F00ABFC4F30A100020013070BD0000045045
S31508004200013831289ABF024B185C0020704700BF5E
S31508004210B09A020838B5C2F30625044602F007022A
S3150800422041B942EA052242F440220634074B43F8D4
S31508004230242038BD1146284618F035FD0246284682
S31508004240FFF7DEFF163442EA0022EFE7008003504C
S315080042504FF48032064B5A6603F5E6239B69C3F38F
S315080042608512827003F03F021B0B42700370704781
S3150800427000900050014B986CD96C70470080E00F95
S315080042800122437801789A4030235943014B5A500A
S31508004290704700BF40E00350034BD3F82424D3F8FB
S315080042A020041040704700BF00C003502DE9F843B2
S315080042B01F4B0546D3F810334B1E0E2B0E461746DA
S315080042C0047890F8018026D951B34FF000092846A2
S315080042D01FB323F083FE0F21B8F1070F04EB440444
S315080042E088BFA8F108084FEA0414124895BF4FEA98
S315080042F088084FEA880804340C3409FA08F201FAE7
S3150800430008F1204418F0F1FC86B9284657B1BDE8F3
S31508004310F84323F063BE8946D9E7FFF7B1FFDAE72A
S315080043208946D8E7BDE8F843FFF7AABFBDE8F88392
S3150800433000C0035030C003502DE9F0412B4B1746FF
S31508004340D3F810234A1C06460C46407804D1D3F805
S31508004350241418F0D9FC0446002C2FDB072C4FF048
S31508004360030532782DDC4FEA840805FA08F5294654
S315080043701F4802FA08F218F0B8FC294672781D4858
S3150800438002F0030202FA08F218F0AFFC012317F054
S31508004390050F194A18BF194903FA04F30CBFC2F8E6
S315080043A01034C1F8103417F0060F18BF134AC2F8B4
S315080043B014340123104AA340C2F820342046BDE82D
S315080043C0F081A4F108084FEA880805FA08F5294695
S315080043D00B4802FA08F218F088FC7278294602F0AF
S315080043E00302084802FA08F2CEE700BF00C00350ED
S315080043F000C4035008C4035000E0035000D0035023
S3150800440004C403500CC40350054B9A689107FCD4A6
S315080044105A689207F9D4DA69002AF6D1704700BFBC
S3150800442000800A50034908B54B6823F0E3FD0223D0
S315080044300B6108BD00800A5008B5FFF7E5FF0122A9
S31508004440024B03F580514A601A6108BD00800A5084
S3150800445008B5044B5868012803D1FFF7E3FF024B60
S31508004460586008BD00800A5000A00A5038B5074DAC
S31508004470FFF7CAFF6B680446012B03D1FFF7E8FF75
S31508004480FFF7C2FF2378EB6038BD00BF00800A50F3
S3150800449010B523F0B9FDB8B94A680B7812B112788D
S315080044A043EAC2034A7843EA42038A6812B1127899
S315080044B043EA8213CA7843EA82030A6912B1127878
S315080044C043EA4223014A936410BD00BF00800A50A4
S315080044D04FF48032084B5A6603F5E6239B691A0B9C
S315080044E0027003F03F0242704FF6FF72C3F3851362
S315080044F042808380704700BF00900050014B986C43
S31508004500D96C70470080E00F70B5044621F08CFB2B
S31508004510064630B90FCC044D0FC594E8030085E86C
S315080045200300304670BD00BFCC14002047F6FF7369
S315080045309A42F0B56FD002296FD8394B5B5C012BD4
S315080045406BD8384DDF0005EBC30415F83330A17876
S31508004550012B13D10025E078401AA84202D8084456
S31508004560C0B2F0BD431B6668A0EB530336F913606F
S315080045709642D4BF1D4603F1FF30EEE76068002877
S31508004580EFD0B0F90040944204DBB0F902409442FF
S31508004590B8BF144683883D44FF2B19BFC8224FF085
S315080045A0280CB0F90620B0F908C0A2EB04030CBF2A
S315080045B00126002693FBFCF333446E781BB29E4219
S315080045C001DD002B01DA731E1BB24FF47A7C01332E
S315080045D09BB2071D5D1E2DB24FEAC50E00EBC50541
S315080045E0EA88AD689E4214FB025222EAE27202F1A0
S315080045F05C02B2FBFCF204DD37F833500133954216
S31508004600E8D200EB0E039888904228BF10468842ED
S3150800461038BF0846A4E7FF20A3E70020A1E700BFAC
S31508004620E29A0208CC1400200229F0B555D82C4B82
S31508004630585C012851D82B4C04EBC00114F8300003
S315080046404B6801280FD1C8788C78904294BFC4EB88
S315080046500001C4EB0201001BCAB28242C8BF002295
S3150800466033F91200F0BD002B37D08878904202D378
S31508004670B3F90200F6E7CC78B3F900009442F1D911
S315080046804C789988013CA1F1FF06714203F10405B3
S31508004690E4B2714103F10C07CEB2B44216D805EB69
S315080046A0C1014FF47A756A43B1F902404968521A52
S315080046B004EBD47102EB610292FBF4F29042D1DB77
S315080046C0B3F902009042CDDC10B2CBE737F831C01F
S315080046D04E1C9445E3D33146DEE70348C2E700BFE4
S315080046E0E29A0208CC1400200080FFFF08B50448AF
S315080046F0FFF70AFFBDE80840012021F099BA00BF7C
S31508004700E89A020800487047D02700207FB50222A1
S31508004710084B0949CDE901234FF00073CDE903138E
S31508004720072301A94FF0FF30059321F0D8FA07B007
S315080047305DF804FB006A1800000206002DE9FF4731
S315080047404FF000080E4617460446CDF800800028AC
S3150800475059D022B90025284604B0BDE8F0870029BB
S3150800476051D032F0030902F0030A1FD04FF0E0637C
S31508004770C0E9003801230191C0F808800293C0F807
S31508004780208049F0005301A9039324F0A9FD494666
S31508004790204624F07FFD204623F08CFC054628B1F0
S315080047A04A464146304621F025FFD4E7BAF1000FC4
S315080047B0D0D04FF000084FF0E063C4E90038012379
S315080047C0CDF804D00293114B204601A9C4F80880FD
S315080047D0C4F82080039324F083FD0421204624F0A6
S315080047E059FD204623F066FC054608B13A46D8E747
S315080047F0009A4E44EB00013522FA03F3AA4506F85F
S31508004800013BF7D1A6E72125A5E700BF0400002054
S3150800481090B189B101234B60C368013B012B08D8CD
S315080048208269064B1AB10A6000208B607047044AF9
S31508004830F9E74FF00053F7E72120704708000020FA
S31508004840D8AC020806289ABF014B185C00207047AE
S31508004850E0AC020810B54FF42F720021044621F08F
S31508004860C9FE8023C4F88C30054B04F19C00C4F8BB
S315080048708430012384F88830BDE8104018F024B845
S3150800488004AD020810B5D0F8A0400A468CB918F055
S31508004890A4FF044610B90024204610BD2D2896BF53
S315080048A0064B074953F82010064A074819F0DBF863
S315080048B0F2E7D0F8A4101046A047ECE7C0AD02080E
S315080048C007AD0208C1970208EEAE0208F8B590F8DF
S315080048D08060044616B100263046F8BD18F0B7FDCC
S315080048E00028F8D1012384F8803094F8883033B151
S315080048F0D4F884101F4884F8886019F0B4F84FF08B
S31508004900FF37D4F8B402421C1FD0C4F8B47210F0B2
S31508004910FF052CD0204618F097FD2946204600F0C2
S31508004920C1FB0028EDD0204618F093FD94F8883096
S315080049303BB1D4F884100F4819F095F8002384F891
S315080049408830002384F88030C6E719F071F8431CD4
S31508004950DDD1D4F88C30D4F89420013B9A4204DB9C
S31508004960054A0649064819F07EF80126E9E70126B0
S31508004970C7E700BFF0AE0208C197020815AD0208E6
S31508004980EEAE0208F8B50B780446302B0D461646EF
S3150800499004D14B7803F0DF03582B11D0284F6A1E39
S315080049A012F8011F002934D128460A2214F02AFEDB
S315080049B0202C03460D4631D1B1FA81F040091AE0A0
S315080049C04A1C1F4912F8013F8BB9284621F02AFED6
S315080049D01C4B02382340032B12D10134A410844205
S315080049E00AD1A87837288CBF0020012003E0CB5CC9
S315080049F013F04400E6D1F8BDCCBF01200020FAE749
S31508004A00002CB8BF0334B0EBA40FD4BF012000209C
S31508004A10F1E77B5C13F00400C2D1ECE726B108434A
S31508004A2002D0013B61F100050122A240013A1A4079
S31508004A30002D08BF9A420CBF01200020DBE700BF0B
S31508004A4095F3020803000080F0B5037801467B2B36
S31508004A5017D10646022400220B4F16F8015F7D2D5A
S31508004A6005D10B5D6BB9D24302F0010008E07B5D0E
S31508004A7013F0440002D001320134EEE7202DFBD0BA
S31508004A80F0BD0020FCE700BF95F3020870B50646A6
S31508004A900D4621F0C7FD0446304618F0E4FF044EE3
S31508004AA0AC4200D370BD304618F0DDFF0134F7E79D
S31508004AB06D9A02082DE9F84F044602216048FFF76F
S31508004AC0E5FF1E212068FFF7E1FF6368586818F0C4
S31508004AD0CAFF5C4818F0C7FF67683B7BFD2B12D8F6
S31508004AE0D7F808804FF0FF34404621F09BFD064674
S31508004AF0DFF84C91DFF8A8A1DFF864B10C3717F896
S31508004B00013BFF2B01D1BDE8F88F212B14D8212BAF
S31508004B1014D8DFE803F0178C8884807C7874131324
S31508004B20131313131313706C6864605C58541313CF
S31508004B30131313131313504CFE2B34D006B1013440
S31508004B40414D02E006B10134404D02214846FFF7C7
S31508004B509DFF1E214846FFF799FF504618F083FF30
S31508004B605946284621F066FD3949002818BF2946C6
S31508004B70384818F078FF3B78202B02D12B2018F004
S31508004B8066FF354818F06FFF4EB118F804301F2B32
S31508004B9005D018F804001F2801D0B4424BDB294879
S31508004BA018F061FFABE706B101342C4DCDE706B12D
S31508004BB001342B4DC9E7002EA1D001349FE706B179
S31508004BC00134284DC1E706B10134274DBDE706B1CA
S31508004BD00134264DB9E706B10134254DB5E706B1CE
S31508004BE00134244DB1E706B10134234DADE706B1D2
S31508004BF00134224DA9E706B10134214DA5E706B1D6
S31508004C000134204DA1E706B101341F4D9DE706B1D9
S31508004C1001341E4D99E706B101341D4D95E706B1DD
S31508004C2001341C4D91E706B101341B4D8DE706B1E1
S31508004C3001341A4D89E718F00AFF0134A9E700BFC5
S31508004C40F7AE0208C197020885AE02087FAE0208D1
S31508004C50DCAE0208F0AE0208F89602088DAE02082D
S31508004C6093AE02089CAE0208A3AE0208AEAE0208D6
S31508004C70B8AE0208C2AE0208ADAE0208B7AE020868
S31508004C80C1AE0208CAAE0208CEAE0208D6AE020807
S31508004C9079AE020880AE0208D5AE020878AE0208E0
S31508004CA0DEAE02082DE9F04F93B005468B46002488
S31508004CB00092049321F0B6FC1C9F049B05901C608F
S31508004CC028463C600AAA09A918F0EFFE064658B914
S31508004CD00A9821F0A7FC3446B146049B1860D5F81B
S31508004CE09C300393039B1BB9204613B0BDE8F08F95
S31508004CF0039B9B680193002B69D02E4416F8013B51
S31508004D00202B12D000260C237343019A02EB030AC8
S31508004D10D3580293002B55D0DDF82480C84551DBC3
S31508004D209AF808302BB1721C35E03B6801333B60BA
S31508004D30E4E73B68D5F894200299D21A049B1A60D6
S31508004D4012AB03EB890353F8203C1846069321F06F
S31508004D5015FC07900028E6D1029821F063FCDAF8E2
S31508004D6004100346087BD7F800A0FE28079A16D138
S31508004D7008F1FF38C8452ED00B68069802920193B1
S31508004D8021F050FC0AF10103029A0344E95C21B1BF
S31508004D903B6009F101091646B5E70133F6E7D5F890
S31508004DA09420A2EB0A029A42BDDC5846069321F0EB
S31508004DB039FC069B03447B2B1DD958461E4A00998D
S31508004DC017F0C4FD2B46059A2A449A422AD1039B1A
S31508004DD01B68039386E7D5F89420A2EB0A029A4249
S31508004DE0E3DDD1F8008058F80C2B82B9059B3B60AF
S31508004DF0049B1A60E6E75846029A009917F0A6FD42
S31508004E0058460E4A0099013417F0A0FD8BE758461C
S31508004E10009917F09BFD5846084A009917F096FD29
S31508004E200134E0E713F8011B0029CED14FF0200129
S31508004E3003F8011CC9E700BFE0AE02086D9A020834
S31508004E402DE9F047002486B01C60DDE90EA8064669
S31508004E5089468AF800401168154888F800401746C0
S31508004E601D468DF81740FCF7F5FD18B901242B6887
S31508004E7001332B600020D6F89C6036B914B10123A3
S31508004E8088F8003006B0BDE8F087B06868B14B46D0
S31508004E900021CDE902A8CDE900750DF1170218F039
S31508004EA039FC9DF81730002BE8D13668E5E700BFD6
S31508004EB0E5AE02082DE9F04300260446ADF5457D2A
S31508004EC07C22314605A802AF049621F093FB802286
S31508004ED02046009703AB04A9FFF7E4FE01283ED15C
S31508004EE004A821F09FFB03993B68A0EB01080B443B
S31508004EF0234428EAE878054604A8014442461846A9
S31508004F0021F083FB00F80860D4F89060039B3968A9
S31508004F10D4F890201944B14212DCD4F89410E81A57
S31508004F200244C4F89020014404AAC4F89410D41882
S31508004F3025182B1B002B0DDC0DF5457DBDE8F083F0
S31508004F40A05C18F084FDD4F8903001360133C4F81B
S31508004F509030DBE714F8010B18F079FDE9E7EBDD93
S31508004F6024AD80223146284621F044FB44AB4FF459
S31508004F7000723146184621F03DFB0DF11009034633
S31508004F804A464FF00108314612F8016B002E49D106
S31508004F9004A843F8281021F045FB2946334619F89A
S31508004FA0016B0DF5887C5CF8042B824243D10133F2
S31508004FB0984501F8016BF2DAD4F89060039BB34286
S31508004FC042DC2346354A04A9354818F04CFD2846E4
S31508004FD021F028FB0646039B3F68F61A1F44E01992
S31508004FE01D4426EAE67204F198031744984204EB36
S31508004FF007014ED204F1900399424AD96A1E8119D3
S315080050000B1A002B39DD12F8013F00F8013BD4F8E2
S3150800501090300133C4F89030D4F894300133C4F892
S315080050209430EDE7202E01F1010104BF43F8281062
S3150800503008F10108A8E70DF1100E7244D25CB242DD
S31508005040B1D00022EA54B7E7D4F890300136E05CD4
S3150800505018F0FDFCD4F890300133C4F89030ADE771
S31508005060D4F89020013B0132C4F89020D4F894205B
S315080050700132C4F89420002BF2DC00232E44E355B9
S31508005080731B002B7FF758AF15F8010B18F0DFFCE0
S31508005090F6E7294621F0B9FA3346ECE704AD0208EB
S315080050A0EAAE02082DE9F843D0E9245604460F462D
S315080050B0002294F89830012B07D10A2F07D1002334
S315080050C084F898300020BDE8F88300F29F801B2FF3
S315080050D001D10223F4E70D2F0DD1012384F898306E
S315080050E00D2018F0B4FC0A2018F0B1FC00230120AA
S315080050F0C4E92433E7E74FF00008082F84F89880BE
S3150800510034D1454530DDB5420FD1384618F09FFCFD
S31508005110202018F09CFC013D384618F098FC013E0A
S3150800512004F80580C4E92456CCE7FBDA05F1FF3913
S31508005130384618F08CFC04EB0903A6EB0902611942
S31508005140184621F03DFA04F806800146013E484813
S3150800515018F089FC35464D4501DC4D46E2E7082046
S3150800516018F075FC013DF6E7ACD0DBE77F2F1CD1C4
S31508005170002EA7DDB542A5DA6319691C2144184635
S31508005180721B21F01DFA04F806800146394818F00A
S315080051906AFC0820013E18F05AFCB542F9D1D4F849
S315080051A09430013BC4F894308CE70A2F98D0092F25
S315080051B003D12046FFF77EFE84E7D4F88C30013B06
S315080051C0B3427FF77FAFB54204EB050805F1010945
S315080051D00CDB384688F80070D4F89430C4F8909000
S315080051E00133C4F8943018F032FC6BE74146721B61
S315080051F004EB090021F0E4F9404618F034FC0820D5
S31508005200013E18F024FCB542F9DDE2E7022B06D18F
S315080052105B2F01D1032353E784F8982049E7032B32
S315080052207FF450AF413F84F89820032F3FF64AAFEA
S31508005230DFE807F002070A160121204618F0B8FB36
S3150800524040E74FF0FF31F8E7B542BFF63BAF605D88
S3150800525018F0FDFBD4F890300133C4F8903031E7EC
S31508005260002D7FF72FAF013D0820C4F89050BAE70C
S31508005270F3AE0208F8AE020870B504460D4623F0F0
S31508005280CBFF0C2C064616D80C2C18D8DFE804F0F1
S315080052901B1B171B1B2A171B2E173117340001233C
S315080052A0194AA34013421DD1062C2AD0DB0706D57E
S315080052B04FF4F06022E00D3CE4B2132CEFD9002342
S315080052C021242B8009E08020FDF7C4FF4FF6FF73E9
S315080052D098420CBF0E2400242880304623F097FFFE
S315080052E0204670BD00230F242B80F6E74FF480601C
S315080052F0EAE74FF44060E7E74FF4C060FDF78CFF3C
S31508005300E4E74FF4E060F9E71C450D0030B58BB0D3
S315080053106C46864D864824F0BAF80FCD0FC42B6824
S31508005320844A2360FF238DF80130D2F84C3113F4F8
S31508005330802340F0EF80D2F850218DF801309DF897
S3150800534001306C46FF2B08BF252368467A4D8DF839
S315080053500130FEF751F83220FEF78CF80FCD0FC456
S315080053600FCD0FC495E8030084E80300714BD3F80A
S315080053704C21120340F1B280A3F5FE431C88B4F514
S31508005380807F28BF64248DF81940FEF72FF804445F
S3150800539084F3080469488DF81840FCF74BFB684607
S315080053A0FDF764FF3220FEF76BF86548FEF76AF9E9
S315080053B06448FEF7DBF9644C644824F068F800207A
S315080053C0FEF764F8FEF714F9236F002023F00703AD
S315080053D043F003032367FEF735F9236F5C4923F48B
S315080053E0744323675B4BD3F8FC2012F0807279D1A3
S315080053F0D4F8803023F0030343F00103C4F8803067
S31508005400C1F88020504CD4F8203123F0070343F02C
S315080054100203C4F82031D4F8283123F0070343F0F7
S315080054200203C4F82831D4F8803123F0030343F08B
S315080054300103C4F88031D4F8403123F0030343F064
S315080054400203C4F84031D4F8603123F0030343F073
S315080054500203C4F86031D4F8403223F0030343F062
S315080054600203C4F84032D4F8003223F0070343F0AD
S315080054700203C4F80032D4F8083223F0070343F0D5
S315080054800203C4F80832D4F8703223F0030343F059
S315080054900103C4F87032D4F8203223F0070343F02E
S315080054A00103C4F82032FDF79FFE4FF0E0220020EA
S315080054B0136943F004031361D4F8603223F0070339
S315080054C043F00103C4F86032D4F8943223F007039A
S315080054D043F00103C4F894320BB030BDD3F8504101
S315080054E0E4B250E7D3F8FC2022F08072C3F8FC201F
S315080054F0D4F8802022F0030242F00102C4F880208A
